{
  "_format": "hh-sol-artifact-1",
  "contractName": "CrowdFunding",
  "sourceName": "contracts/CrowdFunding.sol",
  "abi": [
    {
      "inputs": [
        {
          "internalType": "address",
          "name": "fundraiser_",
          "type": "address"
        }
      ],
      "stateMutability": "nonpayable",
      "type": "constructor"
    },
    {
      "inputs": [],
      "name": "approve",
      "outputs": [
        {
          "internalType": "bool",
          "name": "",
          "type": "bool"
        }
      ],
      "stateMutability": "nonpayable",
      "type": "function"
    },
    {
      "inputs": [],
      "name": "donate",
      "outputs": [
        {
          "internalType": "bool",
          "name": "",
          "type": "bool"
        }
      ],
      "stateMutability": "payable",
      "type": "function"
    },
    {
      "inputs": [
        {
          "internalType": "uint256",
          "name": "amnt_",
          "type": "uint256"
        },
        {
          "internalType": "string",
          "name": "Name_",
          "type": "string"
        }
      ],
      "name": "setAmnt",
      "outputs": [],
      "stateMutability": "nonpayable",
      "type": "function"
    },
    {
      "inputs": [],
      "name": "showDonor",
      "outputs": [
        {
          "internalType": "address[]",
          "name": "",
          "type": "address[]"
        }
      ],
      "stateMutability": "view",
      "type": "function"
    },
    {
      "inputs": [
        {
          "internalType": "string",
          "name": "reason",
          "type": "string"
        },
        {
          "internalType": "uint256",
          "name": "withdraw_amt",
          "type": "uint256"
        }
      ],
      "name": "withdraw",
      "outputs": [
        {
          "internalType": "string",
          "name": "",
          "type": "string"
        },
        {
          "internalType": "bool",
          "name": "",
          "type": "bool"
        }
      ],
      "stateMutability": "nonpayable",
      "type": "function"
    }
  ],
  "bytecode": "0x60806040526000600255600060065560006007553480156200002057600080fd5b506040516200126d3803806200126d8339818101604052810190620000469190620000f7565b806000806101000a81548173ffffffffffffffffffffffffffffffffffffffff021916908373ffffffffffffffffffffffffffffffffffffffff1602179055505062000129565b600080fd5b600073ffffffffffffffffffffffffffffffffffffffff82169050919050565b6000620000bf8262000092565b9050919050565b620000d181620000b2565b8114620000dd57600080fd5b50565b600081519050620000f181620000c6565b92915050565b60006020828403121562000110576200010f6200008d565b5b60006200012084828501620000e0565b91505092915050565b61113480620001396000396000f3fe60806040526004361061004a5760003560e01c806312424e3f1461004f57806330b39a621461007a578063d28ce90a146100b8578063ed88c68e146100e3578063fae8227a14610101575b600080fd5b34801561005b57600080fd5b5061006461012a565b6040516100719190610655565b60405180910390f35b34801561008657600080fd5b506100a1600480360381019061009c9190610800565b6101e0565b6040516100af9291906108db565b60405180910390f35b3480156100c457600080fd5b506100cd6103e3565b6040516100da91906109fb565b60405180910390f35b6100eb610471565b6040516100f89190610655565b60405180910390f35b34801561010d57600080fd5b5061012860048036038101906101239190610a1d565b61061f565b005b600080600090505b6006548110156101d7573373ffffffffffffffffffffffffffffffffffffffff166005600083815260200190815260200160002060009054906101000a900473ffffffffffffffffffffffffffffffffffffffff1673ffffffffffffffffffffffffffffffffffffffff16036101c457600760008154809291906101b590610aa8565b919050555060019150506101dd565b80806101cf90610aa8565b915050610132565b50600090505b90565b606060008060009054906101000a900473ffffffffffffffffffffffffffffffffffffffff1673ffffffffffffffffffffffffffffffffffffffff163373ffffffffffffffffffffffffffffffffffffffff1614610273576040517f08c379a000000000000000000000000000000000000000000000000000000000815260040161026a90610b62565b60405180910390fd5b60008054906101000a900473ffffffffffffffffffffffffffffffffffffffff1673ffffffffffffffffffffffffffffffffffffffff1631670de0b6b3a7640000846102bf9190610b82565b1115610300576040517f08c379a00000000000000000000000000000000000000000000000000000000081526004016102f790610c36565b60405180910390fd5b600260065461030f9190610c85565b6007541015610353576040517f08c379a000000000000000000000000000000000000000000000000000000000815260040161034a90610d02565b60405180910390fd5b60008054906101000a900473ffffffffffffffffffffffffffffffffffffffff1673ffffffffffffffffffffffffffffffffffffffff166108fc670de0b6b3a7640000856103a19190610b82565b9081150290604051600060405180830381858888f193505050501580156103cc573d6000803e3d6000fd5b506000600781905550836001915091509250929050565b6060600480548060200260200160405190810160405280929190818152602001828054801561046757602002820191906000526020600020905b8160009054906101000a900473ffffffffffffffffffffffffffffffffffffffff1673ffffffffffffffffffffffffffffffffffffffff168152602001906001019080831161041d575b5050505050905090565b60008060009054906101000a900473ffffffffffffffffffffffffffffffffffffffff1673ffffffffffffffffffffffffffffffffffffffff163373ffffffffffffffffffffffffffffffffffffffff1603610502576040517f08c379a00000000000000000000000000000000000000000000000000000000081526004016104f990610d6e565b60405180910390fd5b670de0b6b3a764000034101561054d576040517f08c379a000000000000000000000000000000000000000000000000000000000815260040161054490610e00565b60405180910390fd5b6004339080600181540180825580915050600190039060005260206000200160009091909190916101000a81548173ffffffffffffffffffffffffffffffffffffffff021916908373ffffffffffffffffffffffffffffffffffffffff1602179055503360056000600660008154809291906105c890610aa8565b91905055815260200190815260200160002060006101000a81548173ffffffffffffffffffffffffffffffffffffffff021916908373ffffffffffffffffffffffffffffffffffffffff1602179055506001905090565b816001819055508060039081610635919061102c565b505050565b60008115159050919050565b61064f8161063a565b82525050565b600060208201905061066a6000830184610646565b92915050565b6000604051905090565b600080fd5b600080fd5b600080fd5b600080fd5b6000601f19601f8301169050919050565b7f4e487b7100000000000000000000000000000000000000000000000000000000600052604160045260246000fd5b6106d78261068e565b810181811067ffffffffffffffff821117156106f6576106f561069f565b5b80604052505050565b6000610709610670565b905061071582826106ce565b919050565b600067ffffffffffffffff8211156107355761073461069f565b5b61073e8261068e565b9050602081019050919050565b82818337600083830152505050565b600061076d6107688461071a565b6106ff565b90508281526020810184848401111561078957610788610689565b5b61079484828561074b565b509392505050565b600082601f8301126107b1576107b0610684565b5b81356107c184826020860161075a565b91505092915050565b6000819050919050565b6107dd816107ca565b81146107e857600080fd5b50565b6000813590506107fa816107d4565b92915050565b600080604083850312156108175761081661067a565b5b600083013567ffffffffffffffff8111156108355761083461067f565b5b6108418582860161079c565b9250506020610852858286016107eb565b9150509250929050565b600081519050919050565b600082825260208201905092915050565b60005b8381101561089657808201518184015260208101905061087b565b60008484015250505050565b60006108ad8261085c565b6108b78185610867565b93506108c7818560208601610878565b6108d08161068e565b840191505092915050565b600060408201905081810360008301526108f581856108a2565b90506109046020830184610646565b9392505050565b600081519050919050565b600082825260208201905092915050565b6000819050602082019050919050565b600073ffffffffffffffffffffffffffffffffffffffff82169050919050565b600061096282610937565b9050919050565b61097281610957565b82525050565b60006109848383610969565b60208301905092915050565b6000602082019050919050565b60006109a88261090b565b6109b28185610916565b93506109bd83610927565b8060005b838110156109ee5781516109d58882610978565b97506109e083610990565b9250506001810190506109c1565b5085935050505092915050565b60006020820190508181036000830152610a15818461099d565b905092915050565b60008060408385031215610a3457610a3361067a565b5b6000610a42858286016107eb565b925050602083013567ffffffffffffffff811115610a6357610a6261067f565b5b610a6f8582860161079c565b9150509250929050565b7f4e487b7100000000000000000000000000000000000000000000000000000000600052601160045260246000fd5b6000610ab3826107ca565b91507fffffffffffffffffffffffffffffffffffffffffffffffffffffffffffffffff8203610ae557610ae4610a79565b5b600182019050919050565b7f6d6f6e65792063616e2077697468647261772062792066756e6452616973657260008201527f206f6e6c79000000000000000000000000000000000000000000000000000000602082015250565b6000610b4c602583610867565b9150610b5782610af0565b604082019050919050565b60006020820190508181036000830152610b7b81610b3f565b9050919050565b6000610b8d826107ca565b9150610b98836107ca565b9250828202610ba6816107ca565b91508282048414831517610bbd57610bbc610a79565b5b5092915050565b7f776974686472617720616d6e74206d757374206265206c657373207468616e2060008201527f6f7220657175616c20746f74616c2072616973656446756e6400000000000000602082015250565b6000610c20603983610867565b9150610c2b82610bc4565b604082019050919050565b60006020820190508181036000830152610c4f81610c13565b9050919050565b7f4e487b7100000000000000000000000000000000000000000000000000000000600052601260045260246000fd5b6000610c90826107ca565b9150610c9b836107ca565b925082610cab57610caa610c56565b5b828204905092915050565b7f4e6f7420617070726f766564207965742062792074686520646f6e6f72000000600082015250565b6000610cec601d83610867565b9150610cf782610cb6565b602082019050919050565b60006020820190508181036000830152610d1b81610cdf565b9050919050565b7f66756e647261697365722063616e206e6f7420646f6e61746500000000000000600082015250565b6000610d58601983610867565b9150610d6382610d22565b602082019050919050565b60006020820190508181036000830152610d8781610d4b565b9050919050565b7f616d6e74206d7573742062652067726561746572207468616e2031206574686560008201527f7200000000000000000000000000000000000000000000000000000000000000602082015250565b6000610dea602183610867565b9150610df582610d8e565b604082019050919050565b60006020820190508181036000830152610e1981610ddd565b9050919050565b7f4e487b7100000000000000000000000000000000000000000000000000000000600052602260045260246000fd5b60006002820490506001821680610e6757607f821691505b602082108103610e7a57610e79610e20565b5b50919050565b60008190508160005260206000209050919050565b60006020601f8301049050919050565b600082821b905092915050565b600060088302610ee27fffffffffffffffffffffffffffffffffffffffffffffffffffffffffffffffff82610ea5565b610eec8683610ea5565b95508019841693508086168417925050509392505050565b6000819050919050565b6000610f29610f24610f1f846107ca565b610f04565b6107ca565b9050919050565b6000819050919050565b610f4383610f0e565b610f57610f4f82610f30565b848454610eb2565b825550505050565b600090565b610f6c610f5f565b610f77818484610f3a565b505050565b5b81811015610f9b57610f90600082610f64565b600181019050610f7d565b5050565b601f821115610fe057610fb181610e80565b610fba84610e95565b81016020851015610fc9578190505b610fdd610fd585610e95565b830182610f7c565b50505b505050565b600082821c905092915050565b600061100360001984600802610fe5565b1980831691505092915050565b600061101c8383610ff2565b9150826002028217905092915050565b6110358261085c565b67ffffffffffffffff81111561104e5761104d61069f565b5b6110588254610e4f565b611063828285610f9f565b600060209050601f8311600181146110965760008415611084578287015190505b61108e8582611010565b8655506110f6565b601f1984166110a486610e80565b60005b828110156110cc578489015182556001820191506020850194506020810190506110a7565b868310156110e957848901516110e5601f891682610ff2565b8355505b6001600288020188555050505b50505050505056fea2646970667358221220124853b8d44d3e95d8484bc680271cdf23f3d03857e6b6e972098e0a73f1804164736f6c63430008140033",
  "linkReferences": {},
  "deployedLinkReferences": {}
}